8=FIX.4.2|9=73|35=A|34=1|49=client|52=20210825-13:45:49.050|56=server|98=0|108=30|141=Y|10=068|8=FIX.4.2|9=55|35=D|34=2|49=client|52=20210825-13:45:54.329|56=server|10=007|8=FIX.4.2|9=67|35=A|34=3|49=client|52=20210825-13:54:56.356|56=server|98=0|108=30|10=035|8=FIX.4.2|9=55|35=D|34=4|49=client|52=20210825-13:55:05.019|56=server|10=002|8=FIX.4.2|9=55|35=0|34=5|49=client|52=20210825-13:55:35.169|56=server|10=248|8=FIX.4.2|9=67|35=A|34=6|49=client|52=20210825-13:58:19.513|56=server|98=0|108=30|10=036|8=FIX.4.2|9=55|35=D|34=7|49=client|52=20210825-13:58:27.723|56=server|10=014|