8=FIX.4.2|9=67|35=A|34=1|49=server|52=20210810-11:55:00.321|56=client|98=0|108=30|10=007|8=FIX.4.2|9=104|35=5|34=2|49=server|52=20210812-16:22:55.371|56=client|58=MsgSeqNum too low, expecting 4 but received 1|10=180|8=FIX.4.2|9=67|35=A|34=3|49=server|52=20210812-16:27:40.739|56=client|98=0|108=30|10=032|8=FIX.4.2|9=64|35=2|34=4|49=server|52=20210812-16:27:40.744|56=client|7=4|16=0|10=112|8=FIX.4.2|9=55|35=0|34=5|49=server|52=20210812-16:28:11.071|56=client|10=233|8=FIX.4.2|9=55|35=0|34=6|49=server|52=20210812-16:28:41.070|56=client|10=236|8=FIX.4.2|9=55|35=0|34=7|49=server|52=20210812-16:29:11.070|56=client|10=235|8=FIX.4.2|9=105|35=5|34=8|49=server|52=20210820-08:15:41.894|56=client|58=MsgSeqNum too low, expecting 12 but received 1|10=241|8=FIX.4.2|9=105|35=5|34=9|49=server|52=20210820-08:24:36.049|56=client|58=MsgSeqNum too low, expecting 12 but received 3|10=240|8=FIX.4.2|9=106|35=5|34=10|49=server|52=20210820-08:30:20.505|56=client|58=MsgSeqNum too low, expecting 12 but received 6|10=015|