8=FIX.4.2|9=67|35=A|34=1|49=client|52=20210820-10:21:10.212|56=server|98=0|108=30|10=000|8=FIX.4.2|9=55|35=0|34=2|49=client|52=20210820-10:21:40.210|56=server|10=213|8=FIX.4.2|9=55|35=0|34=3|49=client|52=20210820-10:22:10.207|56=server|10=218|8=FIX.4.2|9=55|35=0|34=4|49=client|52=20210820-10:22:40.209|56=server|10=224|8=FIX.4.2|9=67|35=A|34=5|49=client|52=20210820-10:36:42.658|56=server|98=0|108=30|10=029|8=FIX.4.2|9=55|35=0|34=6|49=client|52=20210820-10:37:12.986|56=server|10=243|8=FIX.4.2|9=55|35=0|34=7|49=client|52=20210820-10:37:42.989|56=server|10=250|8=FIX.4.2|9=55|35=0|34=8|49=client|52=20210820-10:38:12.987|56=server|10=247|8=FIX.4.2|9=55|35=0|34=9|49=client|52=20210820-10:38:42.988|56=server|10=252|8=FIX.4.2|9=56|35=0|34=10|49=client|52=20210820-10:39:12.989|56=server|10=036|8=FIX.4.2|9=56|35=0|34=11|49=client|52=20210820-10:39:42.990|56=server|10=032|8=FIX.4.2|9=56|35=0|34=12|49=client|52=20210820-10:40:12.991|56=server|10=023|8=FIX.4.2|9=56|35=0|34=13|49=client|52=20210820-10:40:42.992|56=server|10=028|8=FIX.4.2|9=56|35=0|34=14|49=client|52=20210820-10:41:12.993|56=server|10=028|8=FIX.4.2|9=56|35=0|34=15|49=client|52=20210820-10:41:42.995|56=server|10=034|8=FIX.4.2|9=56|35=0|34=16|49=client|52=20210820-10:42:12.994|56=server|10=032|8=FIX.4.2|9=56|35=0|34=17|49=client|52=20210820-10:42:42.994|56=server|10=036|8=FIX.4.2|9=56|35=0|34=18|49=client|52=20210820-10:43:12.996|56=server|10=037|8=FIX.4.2|9=68|35=A|34=19|49=client|52=20210820-10:50:55.602|56=server|98=0|108=30|10=072|8=FIX.4.2|9=56|35=5|34=20|49=client|52=20210820-10:54:46.663|56=server|10=035|8=FIX.4.2|9=68|35=A|34=21|49=client|52=20210820-10:54:48.612|56=server|98=0|108=30|10=072|8=FIX.4.2|9=68|35=A|34=22|49=client|52=20210820-10:55:59.407|56=server|98=0|108=30|10=078|8=FIX.4.2|9=56|35=0|34=23|49=client|52=20210820-10:56:29.399|56=server|10=042|8=FIX.4.2|9=56|35=0|34=24|49=client|52=20210820-10:56:59.401|56=server|10=030|8=FIX.4.2|9=68|35=A|34=25|49=client|52=20210820-11:00:32.507|56=server|98=0|108=30|10=064|8=FIX.4.2|9=132|35=D|34=26|49=client|52=20210820-11:00:37.947|56=server|11=1|21=1|38=1|40=1|44=10|54=1|55=ClientXXXMMMMMMM|60=20210820-15:00:27.722|10=133|8=FIX.4.2|9=56|35=0|34=27|49=client|52=20210820-11:01:08.504|56=server|10=022|8=FIX.4.2|9=68|35=A|34=28|49=client|52=20210820-11:11:00.276|56=server|98=0|108=30|10=067|8=FIX.4.2|9=132|35=D|34=29|49=client|52=20210820-11:11:06.051|56=server|11=1|21=1|38=1|40=1|44=10|54=1|55=ClientXXXMMMMMMM|60=20210820-15:10:55.799|10=136|8=FIX.4.2|9=56|35=0|34=30|49=client|52=20210820-11:11:36.266|56=server|10=023|8=FIX.4.2|9=56|35=0|34=31|49=client|52=20210820-11:12:06.271|56=server|10=018|8=FIX.4.2|9=56|35=0|34=32|49=client|52=20210820-11:12:36.268|56=server|10=028|8=FIX.4.2|9=68|35=A|34=33|49=client|52=20210820-12:40:29.354|56=server|98=0|108=30|10=074|8=FIX.4.2|9=132|35=D|34=34|49=client|52=20210820-12:40:35.103|56=server|11=1|21=1|38=1|40=1|44=10|54=1|55=ClientXXXMMMMMMM|60=20210820-16:40:24.836|10=127|8=FIX.4.2|9=56|35=0|34=35|49=client|52=20210820-12:41:05.341|56=server|10=022|8=FIX.4.2|9=68|35=A|34=36|49=client|52=20210820-12:44:02.755|56=server|98=0|108=30|10=077|8=FIX.4.2|9=68|35=2|34=37|49=client|52=20210820-12:44:02.922|56=server|7=1118|16=0|10=055|8=FIX.4.2|9=132|35=D|34=38|49=client|52=20210820-12:44:08.445|56=server|11=1|21=1|38=1|40=1|44=10|54=1|55=ClientXXXMMMMMMM|60=20210820-16:43:58.189|10=155|8=FIX.4.2|9=56|35=0|34=39|49=client|52=20210820-12:44:38.745|56=server|10=043|8=FIX.4.2|9=56|35=0|34=40|49=client|52=20210820-12:45:08.747|56=server|10=035|8=FIX.4.2|9=68|35=A|34=41|49=client|52=20210820-12:45:48.711|56=server|98=0|108=30|10=076|8=FIX.4.2|9=132|35=D|34=42|49=client|52=20210820-12:45:54.676|56=server|11=1|21=1|38=1|40=1|44=10|54=1|55=ClientXXXMMMMMMM|60=20210820-16:45:44.447|10=152|8=FIX.4.2|9=56|35=0|34=43|49=client|52=20210820-12:46:24.700|56=server|10=026|8=FIX.4.2|9=68|35=A|34=44|49=client|52=20210820-12:47:50.904|56=server|98=0|108=30|10=078|8=FIX.4.2|9=132|35=D|34=45|49=client|52=20210820-12:47:56.794|56=server|11=1|21=1|38=1|40=1|44=10|54=1|55=ClientXXXMMMMMMM|60=20210820-16:47:46.514|10=159|8=FIX.4.2|9=56|35=0|34=46|49=client|52=20210820-12:48:26.904|56=server|10=039|8=FIX.4.2|9=56|35=0|34=47|49=client|52=20210820-12:48:56.905|56=server|10=044|8=FIX.4.2|9=56|35=0|34=48|49=client|52=20210820-12:49:26.909|56=server|10=047|8=FIX.4.2|9=56|35=0|34=49|49=client|52=20210820-12:49:56.911|56=server|10=044|8=FIX.4.2|9=68|35=A|34=50|49=client|52=20210820-14:01:37.346|56=server|98=0|108=30|10=072|8=FIX.4.2|9=132|35=D|34=51|49=client|52=20210820-14:01:42.095|56=server|11=1|21=1|38=1|40=1|44=10|54=1|55=ClientXXXMMMMMMM|60=20210820-18:01:31.876|10=134|8=FIX.4.2|9=56|35=0|34=52|49=client|52=20210820-14:02:12.330|56=server|10=016|8=FIX.4.2|9=65|35=1|34=53|49=client|52=20210820-14:02:23.334|56=server|112=TEST|10=042|8=FIX.4.2|9=68|35=A|34=54|49=client|52=20210820-14:02:51.337|56=server|98=0|108=30|10=073|8=FIX.4.2|9=68|35=A|34=55|49=client|52=20210820-14:03:03.339|56=server|98=0|108=30|10=074|8=FIX.4.2|9=68|35=A|34=56|49=client|52=20210820-14:03:15.345|56=server|98=0|108=30|10=075|8=FIX.4.2|9=68|35=A|34=57|49=client|52=20210820-14:03:27.343|56=server|98=0|108=30|10=077|8=FIX.4.2|9=68|35=A|34=58|49=client|52=20210820-14:03:39.338|56=server|98=0|108=30|10=085|8=FIX.4.2|9=68|35=A|34=59|49=client|52=20210820-14:03:51.338|56=server|98=0|108=30|10=080|8=FIX.4.2|9=68|35=A|34=60|49=client|52=20210820-14:04:02.341|56=server|98=0|108=30|10=063|8=FIX.4.2|9=68|35=A|34=61|49=client|52=20210820-14:04:14.338|56=server|98=0|108=30|10=073|8=FIX.4.2|9=68|35=A|34=62|49=client|52=20210820-14:04:25.338|56=server|98=0|108=30|10=076|8=FIX.4.2|9=68|35=A|34=63|49=client|52=20210820-14:04:37.337|56=server|98=0|108=30|10=079|8=FIX.4.2|9=68|35=A|34=64|49=client|52=20210820-14:04:49.341|56=server|98=0|108=30|10=078|8=FIX.4.2|9=68|35=A|34=65|49=client|52=20210820-14:05:01.342|56=server|98=0|108=30|10=069|8=FIX.4.2|9=68|35=A|34=66|49=client|52=20210820-14:05:13.344|56=server|98=0|108=30|10=075|8=FIX.4.2|9=68|35=A|34=67|49=client|52=20210820-14:05:25.343|56=server|98=0|108=30|10=078|8=FIX.4.2|9=68|35=A|34=68|49=client|52=20210820-14:05:37.339|56=server|98=0|108=30|10=087|8=FIX.4.2|9=68|35=A|34=69|49=client|52=20210820-14:05:49.342|56=server|98=0|108=30|10=085|8=FIX.4.2|9=68|35=A|34=70|49=client|52=20210820-14:06:46.141|56=server|98=0|108=30|10=072|8=FIX.4.2|9=68|35=2|34=71|49=client|52=20210820-14:06:46.466|56=server|7=1135|16=0|10=063|8=FIX.4.2|9=132|35=D|34=72|49=client|52=20210820-14:06:50.536|56=server|11=1|21=1|38=1|40=1|44=10|54=1|55=ClientXXXMMMMMMM|60=20210820-18:06:40.279|10=143|8=FIX.4.2|9=132|35=D|34=73|49=client|52=20210820-14:11:34.655|56=server|11=1|21=1|38=1|40=1|44=10|54=1|55=ClientXXXMMMMMMM|60=20210820-18:11:03.878|10=144|8=FIX.4.2|9=68|35=A|34=74|49=client|52=20210820-14:11:35.598|56=server|98=0|108=30|10=086|8=FIX.4.2|9=68|35=2|34=75|49=client|52=20210820-14:11:35.734|56=server|7=1136|16=0|10=060|8=FIX.4.2|9=56|35=0|34=76|49=client|52=20210820-14:12:06.589|56=server|10=042|8=FIX.4.2|9=68|35=A|34=77|49=client|52=20210820-14:13:16.400|56=server|98=0|108=30|10=072|8=FIX.4.2|9=68|35=2|34=78|49=client|52=20210820-14:13:16.839|56=server|7=1137|16=0|10=071|8=FIX.4.2|9=56|35=0|34=79|49=client|52=20210820-14:13:47.337|56=server|10=042|8=FIX.4.2|9=65|35=1|34=80|49=client|52=20210820-14:14:02.340|56=server|112=TEST|10=039|8=FIX.4.2|9=68|35=A|34=81|49=client|52=20210820-14:27:58.386|56=server|98=0|108=30|10=091|8=FIX.4.2|9=68|35=2|34=82|49=client|52=20210820-14:27:58.721|56=server|7=1138|16=0|10=068|8=FIX.4.2|9=132|35=D|34=83|49=client|52=20210820-14:28:02.834|56=server|11=1|21=1|38=1|40=1|44=10|54=1|55=ClientXXXMMMMMMM|60=20210820-18:27:52.393|10=150|8=FIX.4.2|9=56|35=0|34=84|49=client|52=20210820-14:28:33.372|56=server|10=038|8=FIX.4.2|9=65|35=1|34=85|49=client|52=20210820-14:28:44.372|56=server|112=TEST|10=060|8=FIX.4.2|9=132|35=D|34=86|49=client|52=20210820-14:32:11.661|56=server|11=1|21=1|38=1|40=1|44=10|54=1|55=ClientXXXMMMMMMM|60=20210820-18:31:50.791|10=141|8=FIX.4.2|9=68|35=A|34=87|49=client|52=20210820-14:33:00.081|56=server|98=0|108=30|10=073|8=FIX.4.2|9=68|35=2|34=88|49=client|52=20210820-14:33:04.584|56=server|7=1139|16=0|10=070|8=FIX.4.2|9=56|35=0|34=89|49=client|52=20210820-14:33:45.059|56=server|10=044|8=FIX.4.2|9=65|35=1|34=90|49=client|52=20210820-14:34:00.062|56=server|112=TEST|10=041|8=FIX.4.2|9=68|35=A|34=91|49=client|52=20210820-14:34:33.028|56=server|98=0|108=30|10=076|8=FIX.4.2|9=68|35=A|34=92|49=client|52=20210820-14:46:49.525|56=server|98=0|108=30|10=089|8=FIX.4.2|9=68|35=2|34=93|49=client|52=20210820-14:46:49.846|56=server|7=1150|16=0|10=073|8=FIX.4.2|9=132|35=D|34=94|49=client|52=20210820-14:46:54.089|56=server|11=1|21=1|38=1|40=1|44=10|54=1|55=ClientXXXMMMMMMM|60=20210820-18:46:43.870|10=162|8=FIX.4.2|9=56|35=0|34=95|49=client|52=20210820-14:47:24.514|56=server|10=039|8=FIX.4.2|9=65|35=1|34=96|49=client|52=20210820-14:47:35.514|56=server|112=TEST|10=061|8=FIX.4.2|9=68|35=A|34=97|49=client|52=20210820-14:48:03.522|56=server|98=0|108=30|10=083|8=FIX.4.2|9=68|35=A|34=98|49=client|52=20210820-14:48:15.516|56=server|98=0|108=30|10=090|8=FIX.4.2|9=68|35=A|34=99|49=client|52=20210820-14:48:26.518|56=server|98=0|108=30|10=095|8=FIX.4.2|9=69|35=A|34=100|49=client|52=20210820-14:48:38.525|56=server|98=0|108=30|10=128|8=FIX.4.2|9=69|35=A|34=101|49=client|52=20210820-14:48:50.521|56=server|98=0|108=30|10=119|8=FIX.4.2|9=69|35=A|34=102|49=client|52=20210820-14:49:02.517|56=server|98=0|108=30|10=123|8=FIX.4.2|9=69|35=A|34=103|49=client|52=20210820-14:49:14.518|56=server|98=0|108=30|10=128|8=FIX.4.2|9=69|35=A|34=104|49=client|52=20210823-05:36:12.938|56=server|98=0|108=30|10=132|8=FIX.4.2|9=69|35=2|34=105|49=client|52=20210823-05:36:13.403|56=server|7=1153|16=0|10=101|8=FIX.4.2|9=133|35=D|34=106|49=client|52=20210823-05:36:16.999|56=server|11=1|21=1|38=1|40=1|44=10|54=1|55=ClientXXXMMMMMMM|60=20210823-09:36:06.672|10=216|8=FIX.4.2|9=57|35=0|34=107|49=client|52=20210823-05:36:47.923|56=server|10=092|8=FIX.4.2|9=66|35=1|34=108|49=client|52=20210823-05:36:58.922|56=server|112=TEST|10=113|8=FIX.4.2|9=69|35=A|34=109|49=client|52=20210823-05:37:26.926|56=server|98=0|108=30|10=140|8=FIX.4.2|9=69|35=A|34=110|49=client|52=20210823-05:37:38.926|56=server|98=0|108=30|10=135|8=FIX.4.2|9=69|35=A|34=111|49=client|52=20210823-05:37:50.921|56=server|98=0|108=30|10=125|8=FIX.4.2|9=69|35=A|34=112|49=client|52=20210823-05:38:02.921|56=server|98=0|108=30|10=124|8=FIX.4.2|9=69|35=A|34=113|49=client|52=20210823-05:38:13.923|56=server|98=0|108=30|10=129|8=FIX.4.2|9=69|35=A|34=114|49=client|52=20210823-05:38:25.919|56=server|98=0|108=30|10=138|8=FIX.4.2|9=69|35=A|34=115|49=client|52=20210823-05:45:44.024|56=server|98=0|108=30|10=125|8=FIX.4.2|9=69|35=2|34=116|49=client|52=20210823-05:45:44.336|56=server|7=1163|16=0|10=113|8=FIX.4.2|9=133|35=D|34=117|49=client|52=20210823-05:45:48.752|56=server|11=1|21=1|38=1|40=1|44=10|54=1|55=ClientXXXMMMMMMM|60=20210823-09:45:38.517|10=213|8=FIX.4.2|9=57|35=0|34=118|49=client|52=20210823-05:46:19.011|56=server|10=082|8=FIX.4.2|9=66|35=1|34=119|49=client|52=20210823-05:46:30.011|56=server|112=TEST|10=095|8=FIX.4.2|9=69|35=A|34=120|49=client|52=20210823-05:46:58.015|56=server|98=0|108=30|10=127|8=FIX.4.2|9=69|35=A|34=121|49=client|52=20210823-05:47:10.014|56=server|98=0|108=30|10=116|8=FIX.4.2|9=69|35=A|34=122|49=client|52=20210823-05:47:22.013|56=server|98=0|108=30|10=119|8=FIX.4.2|9=133|35=D|34=123|49=client|52=20210823-06:18:06.300|56=server|11=1|21=1|38=1|40=1|44=10|54=1|55=ClientXXXMMMMMMM|60=20210823-10:17:55.968|10=194|8=FIX.4.2|9=69|35=A|34=124|49=client|52=20210823-06:18:44.500|56=server|98=0|108=30|10=125|8=FIX.4.2|9=69|35=2|34=125|49=client|52=20210823-06:18:44.853|56=server|7=1169|16=0|10=124|8=FIX.4.2|9=133|35=D|34=126|49=client|52=20210823-06:18:49.127|56=server|11=1|21=1|38=1|40=1|44=10|54=1|55=ClientXXXMMMMMMM|60=20210823-10:18:38.812|10=201|8=FIX.4.2|9=57|35=0|34=127|49=client|52=20210823-06:19:19.485|56=server|10=098|8=FIX.4.2|9=66|35=1|34=128|49=client|52=20210823-06:19:30.497|56=server|112=TEST|10=114|8=FIX.4.2|9=69|35=A|34=129|49=client|52=20210823-06:19:58.513|56=server|98=0|108=30|10=140|8=FIX.4.2|9=69|35=A|34=130|49=client|52=20210823-06:20:10.514|56=server|98=0|108=30|10=113|8=FIX.4.2|9=69|35=A|34=131|49=client|52=20210823-06:21:30.648|56=server|98=0|108=30|10=125|8=FIX.4.2|9=69|35=2|34=132|49=client|52=20210823-06:21:30.905|56=server|7=1178|16=0|10=109|8=FIX.4.2|9=133|35=D|34=133|49=client|52=20210823-06:21:35.771|56=server|11=1|21=1|38=1|40=1|44=10|54=1|55=ClientXXXMMMMMMM|60=20210823-10:21:25.533|10=183|8=FIX.4.2|9=57|35=0|34=134|49=client|52=20210823-06:22:06.639|56=server|10=087|8=FIX.4.2|9=66|35=1|34=135|49=client|52=20210823-06:22:16.640|56=server|112=TEST|10=100|8=FIX.4.2|9=69|35=A|34=136|49=client|52=20210823-06:22:44.641|56=server|98=0|108=30|10=129|8=FIX.4.2|9=69|35=A|34=137|49=client|52=20210823-06:22:56.642|56=server|98=0|108=30|10=134|8=FIX.4.2|9=69|35=A|34=138|49=client|52=20210823-06:23:08.645|56=server|98=0|108=30|10=136|8=FIX.4.2|9=69|35=A|34=139|49=client|52=20210823-06:23:20.641|56=server|98=0|108=30|10=127|8=FIX.4.2|9=69|35=A|34=140|49=client|52=20210823-06:23:32.643|56=server|98=0|108=30|10=124|8=FIX.4.2|9=69|35=A|34=141|49=client|52=20210823-06:23:44.645|56=server|98=0|108=30|10=130|8=FIX.4.2|9=69|35=A|34=142|49=client|52=20210823-06:27:40.448|56=server|98=0|108=30|10=132|8=FIX.4.2|9=69|35=2|34=143|49=client|52=20210823-06:27:40.705|56=server|7=1191|16=0|10=111|8=FIX.4.2|9=133|35=D|34=144|49=client|52=20210823-06:27:46.207|56=server|11=1|21=1|38=1|40=1|44=10|54=1|55=ClientXXXMMMMMMM|60=20210823-10:27:35.991|10=202|8=FIX.4.2|9=57|35=0|34=145|49=client|52=20210823-06:28:16.433|56=server|10=088|8=FIX.4.2|9=66|35=1|34=146|49=client|52=20210823-06:28:26.433|56=server|112=TEST|10=109|8=FIX.4.2|9=69|35=A|34=147|49=client|52=20210823-06:28:54.438|56=server|98=0|108=30|10=142|8=FIX.4.2|9=69|35=A|34=148|49=client|52=20210823-06:29:06.438|56=server|98=0|108=30|10=141|8=FIX.4.2|9=69|35=A|34=149|49=client|52=20210823-06:29:18.438|56=server|98=0|108=30|10=145|8=FIX.4.2|9=69|35=A|34=150|49=client|52=20210823-06:29:30.441|56=server|98=0|108=30|10=125|8=FIX.4.2|9=69|35=A|34=151|49=client|52=20210823-06:29:42.441|56=server|98=0|108=30|10=129|8=FIX.4.2|9=69|35=A|34=152|49=client|52=20210823-06:32:58.379|56=server|98=0|108=30|10=141|8=FIX.4.2|9=69|35=2|34=153|49=client|52=20210823-06:32:58.642|56=server|7=1192|16=0|10=118|8=FIX.4.2|9=133|35=D|34=154|49=client|52=20210823-06:33:03.631|56=server|11=1|21=1|38=1|40=1|44=10|54=1|55=ClientXXXMMMMMMM|60=20210823-10:32:53.404|10=179|8=FIX.4.2|9=57|35=0|34=155|49=client|52=20210823-06:33:34.367|56=server|10=091|8=FIX.4.2|9=66|35=1|34=156|49=client|52=20210823-06:33:44.366|56=server|112=TEST|10=111|8=FIX.4.2|9=69|35=A|34=157|49=client|52=20210823-06:34:12.374|56=server|98=0|108=30|10=133|8=FIX.4.2|9=69|35=A|34=158|49=client|52=20210823-06:34:24.373|56=server|98=0|108=30|10=136|8=FIX.4.2|9=69|35=A|34=159|49=client|52=20210823-06:34:36.369|56=server|98=0|108=30|10=145|8=FIX.4.2|9=69|35=A|34=160|49=client|52=20210823-06:34:47.374|56=server|98=0|108=30|10=135|8=FIX.4.2|9=69|35=A|34=161|49=client|52=20210823-06:34:58.383|56=server|98=0|108=30|10=138|8=FIX.4.2|9=69|35=A|34=162|49=client|52=20210823-06:35:09.391|56=server|98=0|108=30|10=135|8=FIX.4.2|9=69|35=A|34=163|49=client|52=20210823-06:35:21.392|56=server|98=0|108=30|10=131|8=FIX.4.2|9=69|35=A|34=164|49=client|52=20210823-06:35:32.393|56=server|98=0|108=30|10=135|8=FIX.4.2|9=69|35=A|34=165|49=client|52=20210823-06:35:44.397|56=server|98=0|108=30|10=143|8=FIX.4.2|9=69|35=A|34=166|49=client|52=20210823-06:48:53.453|56=server|98=0|108=30|10=141|8=FIX.4.2|9=69|35=2|34=167|49=client|52=20210823-06:48:53.768|56=server|7=1199|16=0|10=141|8=FIX.4.2|9=133|35=D|34=168|49=client|52=20210823-06:48:58.771|56=server|11=1|21=1|38=1|40=1|44=10|54=1|55=ClientXXXMMMMMMM|60=20210823-10:48:48.506|10=219|8=FIX.4.2|9=57|35=0|34=169|49=client|52=20210823-06:49:29.439|56=server|10=107|8=FIX.4.2|9=66|35=1|34=170|49=client|52=20210823-06:49:39.439|56=server|112=TEST|10=119|8=FIX.4.2|9=69|35=A|34=171|49=client|52=20210823-06:50:07.448|56=server|98=0|108=30|10=133|8=FIX.4.2|9=69|35=A|34=172|49=client|52=20210823-06:50:19.449|56=server|98=0|108=30|10=138|8=FIX.4.2|9=69|35=A|34=173|49=client|52=20210823-06:50:31.447|56=server|98=0|108=30|10=131|8=FIX.4.2|9=69|35=A|34=174|49=client|52=20210823-06:50:43.444|56=server|98=0|108=30|10=132|8=FIX.4.2|9=69|35=A|34=175|49=client|52=20210823-06:50:54.451|56=server|98=0|108=30|10=133|8=FIX.4.2|9=69|35=A|34=176|49=client|52=20210823-06:51:05.456|56=server|98=0|108=30|10=136|8=FIX.4.2|9=69|35=A|34=177|49=client|52=20210823-06:59:11.198|56=server|98=0|108=30|10=145|8=FIX.4.2|9=69|35=2|34=178|49=client|52=20210823-06:59:11.384|56=server|7=1206|16=0|10=122|8=FIX.4.2|9=133|35=D|34=179|49=client|52=20210823-06:59:16.736|56=server|11=1|21=1|38=1|40=1|44=10|54=1|55=ClientXXXMMMMMMM|60=20210823-10:59:06.509|10=217|8=FIX.4.2|9=57|35=0|34=180|49=client|52=20210823-06:59:47.184|56=server|10=098|8=FIX.4.2|9=66|35=1|34=181|49=client|52=20210823-06:59:57.183|56=server|112=TEST|10=118|8=FIX.4.2|9=133|35=D|34=182|49=client|52=20210823-08:28:33.601|56=server|11=1|21=1|38=1|40=1|44=10|54=1|55=ClientXXXMMMMMMM|60=20210823-12:28:23.374|10=196|8=FIX.4.2|9=133|35=D|34=183|49=client|52=20210823-08:39:46.656|56=server|11=1|21=1|38=1|40=1|44=10|54=1|55=ClientXXXMMMMMMM|60=20210823-12:39:36.366|10=220|8=FIX.4.2|9=69|35=A|34=184|49=client|52=20210823-08:40:25.633|56=server|98=0|108=30|10=134|8=FIX.4.2|9=69|35=2|34=185|49=client|52=20210823-08:40:25.990|56=server|7=1213|16=0|10=118|8=FIX.4.2|9=133|35=D|34=186|49=client|52=20210823-08:40:29.729|56=server|11=1|21=1|38=1|40=1|44=10|54=1|55=ClientXXXMMMMMMM|60=20210823-12:40:19.457|10=211|8=FIX.4.2|9=69|35=A|34=187|49=client|52=20210823-08:42:27.926|56=server|98=0|108=30|10=146|8=FIX.4.2|9=69|35=2|34=188|49=client|52=20210823-08:42:28.129|56=server|7=1222|16=0|10=120|8=FIX.4.2|9=133|35=D|34=189|49=client|52=20210823-08:42:32.661|56=server|11=1|21=1|38=1|40=1|44=10|54=1|55=ClientXXXMMMMMMM|60=20210823-12:42:22.440|10=193|8=FIX.4.2|9=69|35=A|34=190|49=client|52=20210823-08:43:41.740|56=server|98=0|108=30|10=131|8=FIX.4.2|9=69|35=2|34=191|49=client|52=20210823-08:43:41.939|56=server|7=1229|16=0|10=126|8=FIX.4.2|9=133|35=D|34=192|49=client|52=20210823-08:43:45.888|56=server|11=1|21=1|38=1|40=1|44=10|54=1|55=ClientXXXMMMMMMM|60=20210823-12:43:35.643|10=213|8=FIX.4.2|9=69|35=A|34=193|49=client|52=20210823-08:48:32.313|56=server|98=0|108=30|10=135|8=FIX.4.2|9=69|35=2|34=194|49=client|52=20210823-08:48:32.513|56=server|7=1234|16=0|10=118|8=FIX.4.2|9=133|35=D|34=195|49=client|52=20210823-08:48:33.844|56=server|11=1|21=1|38=1|40=1|44=10|54=1|55=ClientXXXMMMMMMM|60=20210823-12:48:23.227|10=210|8=FIX.4.2|9=69|35=A|34=196|49=client|52=20210823-08:59:25.071|56=server|98=0|108=30|10=143|8=FIX.4.2|9=69|35=2|34=197|49=client|52=20210823-08:59:25.316|56=server|7=1235|16=0|10=127|8=FIX.4.2|9=133|35=D|34=198|49=client|52=20210823-08:59:29.593|56=server|11=1|21=1|38=1|40=1|44=10|54=1|55=ClientXXXMMMMMMM|60=20210823-12:59:19.321|10=223|8=FIX.4.2|9=69|35=A|34=199|49=client|52=20210823-09:08:07.033|56=server|98=0|108=30|10=139|8=FIX.4.2|9=69|35=2|34=200|49=client|52=20210823-09:08:07.280|56=server|7=1236|16=0|10=108|8=FIX.4.2|9=133|35=D|34=201|49=client|52=20210823-09:08:11.777|56=server|11=1|21=1|38=1|40=1|44=10|54=1|55=ClientXXXMMMMMMM|60=20210823-13:08:01.551|10=189|8=FIX.4.2|9=69|35=A|34=202|49=client|52=20210823-09:14:29.609|56=server|98=0|108=30|10=134|8=FIX.4.2|9=69|35=2|34=203|49=client|52=20210823-09:14:29.800|56=server|7=1238|16=0|10=112|8=FIX.4.2|9=133|35=D|34=204|49=client|52=20210823-09:14:34.161|56=server|11=1|21=1|38=1|40=1|44=10|54=1|55=ClientXXXMMMMMMM|60=20210823-13:14:23.931|10=184|8=FIX.4.2|9=69|35=A|34=205|49=client|52=20210823-09:18:19.949|56=server|98=0|108=30|10=147|8=FIX.4.2|9=69|35=2|34=206|49=client|52=20210823-09:18:20.111|56=server|7=1240|16=0|10=098|8=FIX.4.2|9=133|35=D|34=207|49=client|52=20210823-09:18:22.625|56=server|11=1|21=1|38=1|40=1|44=10|54=1|55=ClientXXXMMMMMMM|60=20210823-13:18:12.383|10=196|8=FIX.4.2|9=69|35=A|34=208|49=client|52=20210823-09:18:41.955|56=server|98=0|108=30|10=142|8=FIX.4.2|9=69|35=2|34=209|49=client|52=20210823-09:18:42.121|56=server|7=1242|16=0|10=108|8=FIX.4.2|9=133|35=D|34=210|49=client|52=20210823-09:18:46.577|56=server|11=1|21=1|38=1|40=1|44=10|54=1|55=ClientXXXMMMMMMM|60=20210823-13:18:36.300|10=197|8=FIX.4.2|9=69|35=A|34=211|49=client|52=20210823-09:19:44.458|56=server|98=0|108=30|10=138|8=FIX.4.2|9=69|35=2|34=212|49=client|52=20210823-09:19:44.640|56=server|7=1244|16=0|10=113|8=FIX.4.2|9=133|35=D|34=213|49=client|52=20210823-09:19:49.311|56=server|11=1|21=1|38=1|40=1|44=10|54=1|55=ClientXXXMMMMMMM|60=20210823-13:19:39.065|10=202|8=FIX.4.2|9=69|35=A|34=214|49=client|52=20210823-09:25:19.251|56=server|98=0|108=30|10=131|8=FIX.4.2|9=69|35=2|34=215|49=client|52=20210823-09:25:19.480|56=server|7=1246|16=0|10=119|8=FIX.4.2|9=133|35=D|34=216|49=client|52=20210823-09:25:23.642|56=server|11=1|21=1|38=1|40=1|44=10|54=1|55=ClientXXXMMMMMMM|60=20210823-13:25:13.419|10=193|8=FIX.4.2|9=57|35=0|34=217|49=client|52=20210823-09:25:54.233|56=server|10=088|8=FIX.4.2|9=66|35=1|34=218|49=client|52=20210823-09:26:05.238|56=server|112=TEST|10=110|8=FIX.4.2|9=69|35=A|34=219|49=client|52=20210823-09:26:33.237|56=server|98=0|108=30|10=137|8=FIX.4.2|9=69|35=A|34=220|49=client|52=20210823-09:26:45.237|56=server|98=0|108=30|10=132|8=FIX.4.2|9=69|35=A|34=221|49=client|52=20210823-09:39:34.001|56=server|98=0|108=30|10=124|8=FIX.4.2|9=69|35=2|34=222|49=client|52=20210823-09:39:34.188|56=server|7=1248|16=0|10=126|8=FIX.4.2|9=133|35=D|34=223|49=client|52=20210823-09:39:38.360|56=server|11=1|21=1|38=1|40=1|44=10|54=1|55=ClientXXXMMMMMMM|60=20210823-13:39:28.154|10=206|8=FIX.4.2|9=57|35=0|34=224|49=client|52=20210823-09:40:09.022|56=server|10=079|8=FIX.4.2|9=66|35=1|34=225|49=client|52=20210823-09:40:19.987|56=server|112=TEST|10=120|